{
  "contractName": "RobotFactory",
  "abi": [
    {
      "anonymous": false,
      "inputs": [
        {
          "indexed": false,
          "internalType": "address",
          "name": "owner",
          "type": "address"
        },
        {
          "indexed": false,
          "internalType": "uint256",
          "name": "robotId",
          "type": "uint256"
        },
        {
          "indexed": false,
          "internalType": "uint256",
          "name": "firstRobotParentId",
          "type": "uint256"
        },
        {
          "indexed": false,
          "internalType": "uint256",
          "name": "secondRobotParentId",
          "type": "uint256"
        },
        {
          "indexed": false,
          "internalType": "uint256",
          "name": "id",
          "type": "uint256"
        }
      ],
      "name": "Build",
      "type": "event"
    },
    {
      "anonymous": false,
      "inputs": [
        {
          "indexed": true,
          "internalType": "address",
          "name": "from",
          "type": "address"
        },
        {
          "indexed": true,
          "internalType": "address",
          "name": "to",
          "type": "address"
        },
        {
          "indexed": true,
          "internalType": "uint256",
          "name": "tokenId",
          "type": "uint256"
        }
      ],
      "name": "Transfer",
      "type": "event"
    },
    {
      "constant": true,
      "inputs": [
        {
          "internalType": "uint256",
          "name": "",
          "type": "uint256"
        }
      ],
      "name": "robotIndexToApproved",
      "outputs": [
        {
          "internalType": "address",
          "name": "",
          "type": "address"
        }
      ],
      "payable": false,
      "stateMutability": "view",
      "type": "function"
    },
    {
      "constant": true,
      "inputs": [
        {
          "internalType": "uint256",
          "name": "",
          "type": "uint256"
        }
      ],
      "name": "robotIndexToOwner",
      "outputs": [
        {
          "internalType": "address",
          "name": "",
          "type": "address"
        }
      ],
      "payable": false,
      "stateMutability": "view",
      "type": "function"
    }
  ],
  "bytecode": "0x608060405234801561001057600080fd5b506101b2806100206000396000f3fe608060405234801561001057600080fd5b50600436106100365760003560e01c80630228ec571461003b578063f8420503146100a9575b600080fd5b6100676004803603602081101561005157600080fd5b8101908080359060200190929190505050610117565b604051808273ffffffffffffffffffffffffffffffffffffffff1673ffffffffffffffffffffffffffffffffffffffff16815260200191505060405180910390f35b6100d5600480360360208110156100bf57600080fd5b810190808035906020019092919050505061014a565b604051808273ffffffffffffffffffffffffffffffffffffffff1673ffffffffffffffffffffffffffffffffffffffff16815260200191505060405180910390f35b60036020528060005260406000206000915054906101000a900473ffffffffffffffffffffffffffffffffffffffff1681565b60016020528060005260406000206000915054906101000a900473ffffffffffffffffffffffffffffffffffffffff168156fea265627a7a72315820b6e52919c75b2db97cda1f7f04ef47b57c6477b84107c9a0eb6592c75c69807c64736f6c63430005100032",
  "source": "pragma solidity ^0.5.0;\n\ncontract RobotFactory {\n\n  \n// A new robot is build\n  \nevent Build( address owner, \n             uint256 robotId, \n             uint256 firstRobotParentId,\n             uint256 secondRobotParentId, \n             uint256 id);\n\n  \n//A robot has been transfer\n  \nevent Transfer( address indexed from, \n                address indexed to, \n                uint256 indexed tokenId);\n\n\n\nstruct Robot { \n              uint256 id;\n              uint64 buildTime;\n              uint32 firstRobotParentId;\n              uint32 secondRobotParentId;\n              uint16 generation;\n              }\n\n   Robot[] robots;\n\n  mapping (uint256 => address) public robotIndexToOwner;\n  mapping (address => uint256) ownershipTokenCount;\n\n  // Add a list of approved robots, that are allowed to be transfered\n  mapping (uint256 => address) public robotIndexToApproved;\n\n  function _createRobot(\n              uint256 _firstRobotParentId,\n              uint256 _secondRobotParentId,\n              uint256 _generation,\n              uint256 _id,\n              address _owner\n    ) \n    internal returns (uint256) \n    {\n        Robot memory _robot = Robot({\n            id: _id,\n            buildTime: uint64(now),\n            firstRobotParentId: uint32(_firstRobotParentId),\n            secondRobotParentId: uint32(_secondRobotParentId),\n            generation: uint16(_generation)\n        });\n\n    uint256 newRobotId = robots.push(_robot) - 1;\n\n    // It's probably never going to happen, 4 billion robotss is A LOT, but\n    // let's just be 100% sure this never happen.\n    require(newRobotId == uint256(uint32(newRobotId)));\n\n    // emit the build event\n    emit Build(\n        _owner,\n        newRobotId,\n        uint256(_robot.firstRobotParentId),\n        uint256(_robot.secondRobotParentId),\n        _robot.id\n    );\n\n    // This will assign ownership, and also emit the Transfer event as\n    // per ERC721 draft\n    _transfer(address(0), _owner, newRobotId);\n    return newRobotId;\n  }\n\n  function _transfer(address _from, address _to, uint256 _tokenId) internal {\n\n    // Since the number of robots is capped to 2^32 we can't overflow this\n    ownershipTokenCount[_to]++;\n    // transfer ownership\n    robotIndexToOwner[_tokenId] = _to;\n\n    if (_from != address(0)) {\n        ownershipTokenCount[_from]--;\n\n        delete robotIndexToApproved[_tokenId];\n    }\n\n    // Emit the transfer event.\n    emit Transfer(_from, _to, _tokenId);\n  }\n}\n",
  "sourcePath": "/Users/ivanlieskov/Desktop/TechnoirClub/TechnoirClub/contracts/RobotFactory.sol",
  "compiler": {
    "name": "solc",
    "version": "0.5.16+commit.9c3226ce.Emscripten.clang"
  },
  "schemaVersion": "3.0.23",
  "updatedAt": "2022-04-21T17:48:45.901Z",
  "devdoc": {
    "methods": {}
  },
  "userdoc": {
    "methods": {}
  }
}