{
  "contractName": "RobotCore",
  "abi": [
    {
      "inputs": [],
      "payable": false,
      "stateMutability": "nonpayable",
      "type": "constructor"
    },
    {
      "anonymous": false,
      "inputs": [
        {
          "indexed": false,
          "internalType": "address",
          "name": "owner",
          "type": "address"
        },
        {
          "indexed": false,
          "internalType": "address",
          "name": "approved",
          "type": "address"
        },
        {
          "indexed": false,
          "internalType": "uint256",
          "name": "tokenId",
          "type": "uint256"
        }
      ],
      "name": "Approval",
      "type": "event"
    },
    {
      "anonymous": false,
      "inputs": [
        {
          "indexed": false,
          "internalType": "address",
          "name": "owner",
          "type": "address"
        },
        {
          "indexed": false,
          "internalType": "uint256",
          "name": "robotId",
          "type": "uint256"
        },
        {
          "indexed": false,
          "internalType": "uint256",
          "name": "firstRobotParentId",
          "type": "uint256"
        },
        {
          "indexed": false,
          "internalType": "uint256",
          "name": "secondRobotParentId",
          "type": "uint256"
        },
        {
          "indexed": false,
          "internalType": "uint256",
          "name": "id",
          "type": "uint256"
        }
      ],
      "name": "Build",
      "type": "event"
    },
    {
      "anonymous": false,
      "inputs": [
        {
          "indexed": false,
          "internalType": "string",
          "name": "TxType",
          "type": "string"
        },
        {
          "indexed": false,
          "internalType": "address",
          "name": "owner",
          "type": "address"
        },
        {
          "indexed": false,
          "internalType": "uint256",
          "name": "tokenId",
          "type": "uint256"
        }
      ],
      "name": "MarketTransaction",
      "type": "event"
    },
    {
      "anonymous": false,
      "inputs": [
        {
          "indexed": false,
          "internalType": "address",
          "name": "from",
          "type": "address"
        },
        {
          "indexed": false,
          "internalType": "address",
          "name": "to",
          "type": "address"
        },
        {
          "indexed": false,
          "internalType": "uint256",
          "name": "tokenId",
          "type": "uint256"
        }
      ],
      "name": "Transfer",
      "type": "event"
    },
    {
      "constant": true,
      "inputs": [],
      "name": "CREATION_LIMIT_GEN0",
      "outputs": [
        {
          "internalType": "uint256",
          "name": "",
          "type": "uint256"
        }
      ],
      "payable": false,
      "stateMutability": "view",
      "type": "function"
    },
    {
      "constant": false,
      "inputs": [
        {
          "internalType": "address",
          "name": "_to",
          "type": "address"
        },
        {
          "internalType": "uint256",
          "name": "_tokenId",
          "type": "uint256"
        }
      ],
      "name": "approve",
      "outputs": [],
      "payable": false,
      "stateMutability": "nonpayable",
      "type": "function"
    },
    {
      "constant": true,
      "inputs": [
        {
          "internalType": "address",
          "name": "_owner",
          "type": "address"
        }
      ],
      "name": "balanceOf",
      "outputs": [
        {
          "internalType": "uint256",
          "name": "count",
          "type": "uint256"
        }
      ],
      "payable": false,
      "stateMutability": "view",
      "type": "function"
    },
    {
      "constant": false,
      "inputs": [
        {
          "internalType": "uint256",
          "name": "_tokenId",
          "type": "uint256"
        }
      ],
      "name": "buyRobot",
      "outputs": [],
      "payable": true,
      "stateMutability": "payable",
      "type": "function"
    },
    {
      "constant": true,
      "inputs": [],
      "name": "gen0Counter",
      "outputs": [
        {
          "internalType": "uint256",
          "name": "",
          "type": "uint256"
        }
      ],
      "payable": false,
      "stateMutability": "view",
      "type": "function"
    },
    {
      "constant": true,
      "inputs": [],
      "name": "getAllTokenOnSale",
      "outputs": [
        {
          "internalType": "uint256[]",
          "name": "listOfToken",
          "type": "uint256[]"
        }
      ],
      "payable": false,
      "stateMutability": "view",
      "type": "function"
    },
    {
      "constant": true,
      "inputs": [
        {
          "internalType": "uint256",
          "name": "_tokenId",
          "type": "uint256"
        }
      ],
      "name": "getOffer",
      "outputs": [
        {
          "internalType": "address",
          "name": "seller",
          "type": "address"
        },
        {
          "internalType": "uint256",
          "name": "price",
          "type": "uint256"
        },
        {
          "internalType": "uint256",
          "name": "tokenId",
          "type": "uint256"
        }
      ],
      "payable": false,
      "stateMutability": "view",
      "type": "function"
    },
    {
      "constant": true,
      "inputs": [],
      "name": "name",
      "outputs": [
        {
          "internalType": "string",
          "name": "",
          "type": "string"
        }
      ],
      "payable": false,
      "stateMutability": "view",
      "type": "function"
    },
    {
      "constant": true,
      "inputs": [],
      "name": "owner",
      "outputs": [
        {
          "internalType": "address",
          "name": "",
          "type": "address"
        }
      ],
      "payable": false,
      "stateMutability": "view",
      "type": "function"
    },
    {
      "constant": true,
      "inputs": [
        {
          "internalType": "uint256",
          "name": "_tokenId",
          "type": "uint256"
        }
      ],
      "name": "ownerOf",
      "outputs": [
        {
          "internalType": "address",
          "name": "owner",
          "type": "address"
        }
      ],
      "payable": false,
      "stateMutability": "view",
      "type": "function"
    },
    {
      "constant": false,
      "inputs": [
        {
          "internalType": "uint256",
          "name": "_tokenId",
          "type": "uint256"
        }
      ],
      "name": "removeOffer",
      "outputs": [],
      "payable": false,
      "stateMutability": "nonpayable",
      "type": "function"
    },
    {
      "constant": true,
      "inputs": [
        {
          "internalType": "uint256",
          "name": "",
          "type": "uint256"
        }
      ],
      "name": "robotIndexToApproved",
      "outputs": [
        {
          "internalType": "address",
          "name": "",
          "type": "address"
        }
      ],
      "payable": false,
      "stateMutability": "view",
      "type": "function"
    },
    {
      "constant": true,
      "inputs": [
        {
          "internalType": "uint256",
          "name": "",
          "type": "uint256"
        }
      ],
      "name": "robotIndexToOwner",
      "outputs": [
        {
          "internalType": "address",
          "name": "",
          "type": "address"
        }
      ],
      "payable": false,
      "stateMutability": "view",
      "type": "function"
    },
    {
      "constant": false,
      "inputs": [
        {
          "internalType": "uint256",
          "name": "_price",
          "type": "uint256"
        },
        {
          "internalType": "uint256",
          "name": "_tokenId",
          "type": "uint256"
        }
      ],
      "name": "setOffer",
      "outputs": [],
      "payable": false,
      "stateMutability": "nonpayable",
      "type": "function"
    },
    {
      "constant": true,
      "inputs": [
        {
          "internalType": "bytes4",
          "name": "_interfaceID",
          "type": "bytes4"
        }
      ],
      "name": "supportsInterface",
      "outputs": [
        {
          "internalType": "bool",
          "name": "",
          "type": "bool"
        }
      ],
      "payable": false,
      "stateMutability": "pure",
      "type": "function"
    },
    {
      "constant": true,
      "inputs": [],
      "name": "symbol",
      "outputs": [
        {
          "internalType": "string",
          "name": "",
          "type": "string"
        }
      ],
      "payable": false,
      "stateMutability": "view",
      "type": "function"
    },
    {
      "constant": true,
      "inputs": [
        {
          "internalType": "address",
          "name": "_owner",
          "type": "address"
        }
      ],
      "name": "tokensOfOwner",
      "outputs": [
        {
          "internalType": "uint256[]",
          "name": "ownerTokens",
          "type": "uint256[]"
        }
      ],
      "payable": false,
      "stateMutability": "view",
      "type": "function"
    },
    {
      "constant": true,
      "inputs": [],
      "name": "totalSupply",
      "outputs": [
        {
          "internalType": "uint256",
          "name": "",
          "type": "uint256"
        }
      ],
      "payable": false,
      "stateMutability": "view",
      "type": "function"
    },
    {
      "constant": false,
      "inputs": [
        {
          "internalType": "address",
          "name": "_to",
          "type": "address"
        },
        {
          "internalType": "uint256",
          "name": "_tokenId",
          "type": "uint256"
        }
      ],
      "name": "transfer",
      "outputs": [],
      "payable": false,
      "stateMutability": "nonpayable",
      "type": "function"
    },
    {
      "constant": false,
      "inputs": [
        {
          "internalType": "address",
          "name": "_from",
          "type": "address"
        },
        {
          "internalType": "address",
          "name": "_to",
          "type": "address"
        },
        {
          "internalType": "uint256",
          "name": "_tokenId",
          "type": "uint256"
        }
      ],
      "name": "transferFrom",
      "outputs": [],
      "payable": false,
      "stateMutability": "nonpayable",
      "type": "function"
    },
    {
      "constant": false,
      "inputs": [
        {
          "internalType": "address",
          "name": "newOwner",
          "type": "address"
        }
      ],
      "name": "transferOwnership",
      "outputs": [],
      "payable": false,
      "stateMutability": "nonpayable",
      "type": "function"
    },
    {
      "constant": false,
      "inputs": [
        {
          "internalType": "uint256",
          "name": "_secondRobotParentId",
          "type": "uint256"
        },
        {
          "internalType": "uint256",
          "name": "_firstRobotParentId",
          "type": "uint256"
        }
      ],
      "name": "Modifying",
      "outputs": [],
      "payable": false,
      "stateMutability": "nonpayable",
      "type": "function"
    },
    {
      "constant": false,
      "inputs": [
        {
          "internalType": "uint256",
          "name": "_id",
          "type": "uint256"
        }
      ],
      "name": "createRobotGen0",
      "outputs": [],
      "payable": false,
      "stateMutability": "nonpayable",
      "type": "function"
    },
    {
      "constant": true,
      "inputs": [
        {
          "internalType": "uint256",
          "name": "_id",
          "type": "uint256"
        }
      ],
      "name": "getRobot",
      "outputs": [
        {
          "internalType": "uint256",
          "name": "id",
          "type": "uint256"
        },
        {
          "internalType": "uint256",
          "name": "buildTime",
          "type": "uint256"
        },
        {
          "internalType": "uint256",
          "name": "firstRobotParentId",
          "type": "uint256"
        },
        {
          "internalType": "uint256",
          "name": "secondRobotParentId",
          "type": "uint256"
        },
        {
          "internalType": "uint256",
          "name": "generation",
          "type": "uint256"
        }
      ],
      "payable": false,
      "stateMutability": "view",
      "type": "function"
    }
  ],
  "bytecode": "0x60806040523480156200001157600080fd5b50336000806101000a81548173ffffffffffffffffffffffffffffffffffffffff021916908373ffffffffffffffffffffffffffffffffffffffff1602179055506200008a60008060007fffffffffffffffffffffffffffffffffffffffffffffffffffffffffffffffff60006200009160201b60201c565b5062000496565b60006200009d6200044d565b6040518060a001604052808581526020014267ffffffffffffffff1681526020018863ffffffff1681526020018763ffffffff1681526020018661ffff168152509050600060018083908060018154018082558091505090600182039060005260206000209060020201600090919290919091506000820151816000015560208201518160010160006101000a81548167ffffffffffffffff021916908367ffffffffffffffff16021790555060408201518160010160086101000a81548163ffffffff021916908363ffffffff160217905550606082015181600101600c6101000a81548163ffffffff021916908363ffffffff16021790555060808201518160010160106101000a81548161ffff021916908361ffff16021790555050500390508063ffffffff168114620001d357600080fd5b7f1d5f31e7284cc394052e49ea7639173b45d88885a247d664e964489ee8f4ecdb8482846040015163ffffffff16856060015163ffffffff168660000151604051808673ffffffffffffffffffffffffffffffffffffffff1673ffffffffffffffffffffffffffffffffffffffff1681526020018581526020018481526020018381526020018281526020019550505050505060405180910390a162000282600085836200029060201b60201c565b809250505095945050505050565b600360008373ffffffffffffffffffffffffffffffffffffffff1673ffffffffffffffffffffffffffffffffffffffff16815260200190815260200160002060008154809291906001019190505550816002600083815260200190815260200160002060006101000a81548173ffffffffffffffffffffffffffffffffffffffff021916908373ffffffffffffffffffffffffffffffffffffffff160217905550600073ffffffffffffffffffffffffffffffffffffffff168373ffffffffffffffffffffffffffffffffffffffff1614620003ed57600360008473ffffffffffffffffffffffffffffffffffffffff1673ffffffffffffffffffffffffffffffffffffffff16815260200190815260200160002060008154809291906001900391905055506004600082815260200190815260200160002060006101000a81549073ffffffffffffffffffffffffffffffffffffffff02191690555b808273ffffffffffffffffffffffffffffffffffffffff168473ffffffffffffffffffffffffffffffffffffffff167fddf252ad1be2c89b69c2b068fc378daa952ba7f163c4a11628f55a4df523b3ef60405160405180910390a4505050565b6040518060a0016040528060008152602001600067ffffffffffffffff168152602001600063ffffffff168152602001600063ffffffff168152602001600061ffff1681525090565b61287480620004a66000396000f3fe60806040526004361061014b5760003560e01c80638462151c116100b6578063a9059cbb1161006f578063a9059cbb1461089b578063b331ae57146108f6578063b483433014610924578063ef5e94aa1461094f578063f2fde38b1461097a578063f8420503146109cb5761014b565b80638462151c146106235780638da5cb5b146106c9578063941b055b1461072057806395a0f9c71461076557806395d89b41146107a057806395e26422146108305761014b565b806323b872dd1161010857806323b872dd1461038e57806330f273c5146104095780634579268a1461044e57806349b3709f146104d75780636352211e1461054357806370a08231146105be5761014b565b806301ffc9a7146101505780630228ec57146101c257806306fdde031461023d578063095ea7b3146102cd57806318160ddd1461032857806320cc536114610353575b600080fd5b34801561015c57600080fd5b506101a86004803603602081101561017357600080fd5b8101908080357bffffffffffffffffffffffffffffffffffffffffffffffffffffffff19169060200190929190505050610a46565b604051808215151515815260200191505060405180910390f35b3480156101ce57600080fd5b506101fb600480360360208110156101e557600080fd5b8101908080359060200190929190505050610d14565b604051808273ffffffffffffffffffffffffffffffffffffffff1673ffffffffffffffffffffffffffffffffffffffff16815260200191505060405180910390f35b34801561024957600080fd5b50610252610d47565b6040518080602001828103825283818151815260200191508051906020019080838360005b83811015610292578082015181840152602081019050610277565b50505050905090810190601f1680156102bf5780820380516001836020036101000a031916815260200191505b509250505060405180910390f35b3480156102d957600080fd5b50610326600480360360408110156102f057600080fd5b81019080803573ffffffffffffffffffffffffffffffffffffffff16906020019092919080359060200190929190505050610d80565b005b34801561033457600080fd5b5061033d610e40565b6040518082815260200191505060405180910390f35b34801561035f57600080fd5b5061038c6004803603602081101561037657600080fd5b8101908080359060200190929190505050610e4f565b005b34801561039a57600080fd5b50610407600480360360608110156103b157600080fd5b81019080803573ffffffffffffffffffffffffffffffffffffffff169060200190929190803573ffffffffffffffffffffffffffffffffffffffff16906020019092919080359060200190929190505050610ef2565b005b34801561041557600080fd5b5061044c6004803603604081101561042c57600080fd5b810190808035906020019092919080359060200190929190505050610f62565b005b34801561045a57600080fd5b506104876004803603602081101561047157600080fd5b8101908080359060200190929190505050611272565b604051808473ffffffffffffffffffffffffffffffffffffffff1673ffffffffffffffffffffffffffffffffffffffff168152602001838152602001828152602001935050505060405180910390f35b3480156104e357600080fd5b506104ec6112cd565b6040518080602001828103825283818151815260200191508051906020019060200280838360005b8381101561052f578082015181840152602081019050610514565b505050509050019250505060405180910390f35b34801561054f57600080fd5b5061057c6004803603602081101561056657600080fd5b81019080803590602001909291905050506113d2565b604051808273ffffffffffffffffffffffffffffffffffffffff1673ffffffffffffffffffffffffffffffffffffffff16815260200191505060405180910390f35b3480156105ca57600080fd5b5061060d600480360360208110156105e157600080fd5b81019080803573ffffffffffffffffffffffffffffffffffffffff169060200190929190505050611449565b6040518082815260200191505060405180910390f35b34801561062f57600080fd5b506106726004803603602081101561064657600080fd5b81019080803573ffffffffffffffffffffffffffffffffffffffff169060200190929190505050611492565b6040518080602001828103825283818151815260200191508051906020019060200280838360005b838110156106b557808201518184015260208101905061069a565b505050509050019250505060405180910390f35b3480156106d557600080fd5b506106de6115da565b604051808273ffffffffffffffffffffffffffffffffffffffff1673ffffffffffffffffffffffffffffffffffffffff16815260200191505060405180910390f35b34801561072c57600080fd5b506107636004803603604081101561074357600080fd5b8101908080359060200190929190803590602001909291905050506115ff565b005b34801561077157600080fd5b5061079e6004803603602081101561078857600080fd5b81019080803590602001909291905050506118d8565b005b3480156107ac57600080fd5b506107b5611bd4565b6040518080602001828103825283818151815260200191508051906020019080838360005b838110156107f55780820151818401526020810190506107da565b50505050905090810190601f1680156108225780820380516001836020036101000a031916815260200191505b509250505060405180910390f35b34801561083c57600080fd5b506108696004803603602081101561085357600080fd5b8101908080359060200190929190505050611c0d565b604051808681526020018581526020018481526020018381526020018281526020019550505050505060405180910390f35b3480156108a757600080fd5b506108f4600480360360408110156108be57600080fd5b81019080803573ffffffffffffffffffffffffffffffffffffffff16906020019092919080359060200190929190505050611d54565b005b6109226004803603602081101561090c57600080fd5b8101908080359060200190929190505050611db0565b005b34801561093057600080fd5b5061093961207c565b6040518082815260200191505060405180910390f35b34801561095b57600080fd5b50610964612081565b6040518082815260200191505060405180910390f35b34801561098657600080fd5b506109c96004803603602081101561099d57600080fd5b81019080803573ffffffffffffffffffffffffffffffffffffffff169060200190929190505050612087565b005b3480156109d757600080fd5b50610a04600480360360208110156109ee57600080fd5b8101908080359060200190929190505050612158565b604051808273ffffffffffffffffffffffffffffffffffffffff1673ffffffffffffffffffffffffffffffffffffffff16815260200191505060405180910390f35b600060405180807f737570706f727473496e74657266616365286279746573342900000000000000815250601901905060405180910390207bffffffffffffffffffffffffffffffffffffffffffffffffffffffff1916827bffffffffffffffffffffffffffffffffffffffffffffffffffffffff19161480610d0d575060405180807f746f6b656e4d657461646174612875696e743235362c737472696e6729000000815250601d019050604051809103902060405180807f746f6b656e734f664f776e6572286164647265737329000000000000000000008152506016019050604051809103902060405180806127cf602591396025019050604051809103902060405180807f7472616e7366657228616464726573732c75696e7432353629000000000000008152506019019050604051809103902060405180807f617070726f766528616464726573732c75696e743235362900000000000000008152506018019050604051809103902060405180807f6f776e65724f662875696e7432353629000000000000000000000000000000008152506010019050604051809103902060405180807f62616c616e63654f6628616464726573732900000000000000000000000000008152506012019050604051809103902060405180807f746f74616c537570706c79282900000000000000000000000000000000000000815250600d019050604051809103902060405180807f73796d626f6c28290000000000000000000000000000000000000000000000008152506008019050604051809103902060405180807f6e616d6528290000000000000000000000000000000000000000000000000000815250600601905060405180910390201818181818181818187bffffffffffffffffffffffffffffffffffffffffffffffffffffffff1916827bffffffffffffffffffffffffffffffffffffffffffffffffffffffff1916145b9050919050565b60046020528060005260406000206000915054906101000a900473ffffffffffffffffffffffffffffffffffffffff1681565b6040518060400160405280600c81526020017f546563686e6f6972436c7562000000000000000000000000000000000000000081525081565b610d8a338261218b565b610d9357600080fd5b610d9d81836121f7565b7f8c5be1e5ebec7d5bd14f71427d1e84f3dd0314c0f7b2291e5b200ac8c7c3b925338383604051808473ffffffffffffffffffffffffffffffffffffffff1673ffffffffffffffffffffffffffffffffffffffff1681526020018373ffffffffffffffffffffffffffffffffffffffff1673ffffffffffffffffffffffffffffffffffffffff168152602001828152602001935050505060405180910390a15050565b60006001808054905003905090565b6000809054906101000a900473ffffffffffffffffffffffffffffffffffffffff1673ffffffffffffffffffffffffffffffffffffffff163373ffffffffffffffffffffffffffffffffffffffff1614610ea857600080fd5b600a60085410610eb757600080fd5b6008600081548092919060010191905055506000610eda6000806000853361224d565b9050610eee6702c68af0bb140000826115ff565b5050565b600073ffffffffffffffffffffffffffffffffffffffff168273ffffffffffffffffffffffffffffffffffffffff161415610f2c57600080fd5b610f363382612441565b610f3f57600080fd5b610f49838261218b565b610f5257600080fd5b610f5d8383836124ad565b505050565b610f6c338361218b565b610fde576040517f08c379a000000000000000000000000000000000000000000000000000000000815260040180806020018281038252601e8152602001807f546865207573657220646f65736e2774206f776e2074686520746f6b656e000081525060200191505060405180910390fd5b610fe8338261218b565b61105a576040517f08c379a000000000000000000000000000000000000000000000000000000000815260040180806020018281038252601e8152602001807f546865207573657220646f65736e2774206f776e2074686520746f6b656e000081525060200191505060405180910390fd5b818114156110b3576040517f08c379a000000000000000000000000000000000000000000000000000000000815260040180806020018281038252603e815260200180612791603e913960400191505060405180910390fd5b6000806110bf84611c0d565b945050505091506000806110d285611c0d565b9450505050915060006110e36126b5565b600060079050600060ff42816110f557fe5b0690506000809050600190505b6080811161118e576000818360ff16161461113f576064878161112157fe5b0660ff1684846008811061113157fe5b602002018181525050611163565b6064898161114957fe5b0660ff1684846008811061115957fe5b6020020181815250505b6064878161116d57fe5b0496506064898161117a57fe5b049850600183039250600281029050611102565b600060078360ff168161119d57fe5b06905060638360ff16816111ad57fe5b0660ff16858260ff16600881106111c057fe5b602002018181525050600091505b6008821015611208578482600881106111e357fe5b602002015186019550600782146111fb576064860295505b81806001019250506111ce565b6000809050878a101561122d576001880190506002818161122557fe5b049050611255565b878a111561124d5760018a0190506002818161124557fe5b049050611254565b6001880190505b5b6112628c8e838a3361224d565b5050505050505050505050505050565b6000806000806006600086815260200190815260200160002090508060000160009054906101000a900473ffffffffffffffffffffffffffffffffffffffff1681600101548260020154829250935093509350509193909250565b606060006005805490509050600081141561131b5760006040519080825280602002602001820160405280156113125781602001602082028038833980820191505090505b509150506113cf565b60608160405190808252806020026020018201604052801561134c5781602001602082028038833980820191505090505b50905060008090505b828110156113c85760006005828154811061136c57fe5b906000526020600020906003020160010154146113bb576005818154811061139057fe5b9060005260206000209060030201600201548282815181106113ae57fe5b6020026020010181815250505b8080600101915050611355565b8193505050505b90565b60006002600083815260200190815260200160002060009054906101000a900473ffffffffffffffffffffffffffffffffffffffff169050600073ffffffffffffffffffffffffffffffffffffffff168173ffffffffffffffffffffffffffffffffffffffff16141561144457600080fd5b919050565b6000600360008373ffffffffffffffffffffffffffffffffffffffff1673ffffffffffffffffffffffffffffffffffffffff168152602001908152602001600020549050919050565b6060600061149f83611449565b905060008114156114e35760006040519080825280602002602001820160405280156114da5781602001602082028038833980820191505090505b509150506115d5565b6060816040519080825280602002602001820160405280156115145781602001602082028038833980820191505090505b5090506000611521610e40565b905060008090506000600190505b8281116115cc578673ffffffffffffffffffffffffffffffffffffffff166002600083815260200190815260200160002060009054906101000a900473ffffffffffffffffffffffffffffffffffffffff1673ffffffffffffffffffffffffffffffffffffffff1614156115bf57808483815181106115aa57fe5b60200260200101818152505081806001019250505b808060010191505061152f565b83955050505050505b919050565b6000809054906101000a900473ffffffffffffffffffffffffffffffffffffffff1681565b661ff973cafa8000821161165e576040517f08c379a00000000000000000000000000000000000000000000000000000000081526004018080602001828103825260278152602001806127f46027913960400191505060405180910390fd5b60006006600083815260200190815260200160002060010154146116cd576040517f08c379a000000000000000000000000000000000000000000000000000000000815260040180806020018281038252602581526020018061281b6025913960400191505060405180910390fd5b6116d73082610d80565b6116df6126d8565b60405180606001604052803373ffffffffffffffffffffffffffffffffffffffff168152602001848152602001838152509050806006600084815260200190815260200160002060008201518160000160006101000a81548173ffffffffffffffffffffffffffffffffffffffff021916908373ffffffffffffffffffffffffffffffffffffffff1602179055506020820151816001015560408201518160020155905050600060016005839080600181540180825580915050906001820390600052602060002090600302016000909192909190915060008201518160000160006101000a81548173ffffffffffffffffffffffffffffffffffffffff021916908373ffffffffffffffffffffffffffffffffffffffff160217905550602082015181600101556040820151816002015550500390508060076000858152602001908152602001600020819055507fd99e4fad9ad6313b1feb588fa8e605e3a9873172f2024330c35dd2b4041a4386338460405180806020018473ffffffffffffffffffffffffffffffffffffffff1673ffffffffffffffffffffffffffffffffffffffff1681526020018381526020018281038252600c8152602001807f437265617465206f666665720000000000000000000000000000000000000000815250602001935050505060405180910390a150505050565b6118e2338261218b565b611954576040517f08c379a000000000000000000000000000000000000000000000000000000000815260040180806020018281038252601e8152602001807f546865207573657220646f65736e2774206f776e2074686520746f6b656e000081525060200191505060405180910390fd5b61195c6126d8565b600660008381526020019081526020016000206040518060600160405290816000820160009054906101000a900473ffffffffffffffffffffffffffffffffffffffff1673ffffffffffffffffffffffffffffffffffffffff1673ffffffffffffffffffffffffffffffffffffffff1681526020016001820154815260200160028201548152505090503373ffffffffffffffffffffffffffffffffffffffff16816000015173ffffffffffffffffffffffffffffffffffffffff1614611a6e576040517f08c379a00000000000000000000000000000000000000000000000000000000081526004018080602001828103825260388152602001806127596038913960400191505060405180910390fd5b6005600760008481526020019081526020016000205481548110611a8e57fe5b9060005260206000209060030201600080820160006101000a81549073ffffffffffffffffffffffffffffffffffffffff021916905560018201600090556002820160009055505060066000838152602001908152602001600020600080820160006101000a81549073ffffffffffffffffffffffffffffffffffffffff0219169055600182016000905560028201600090555050611b2c82612669565b7fd99e4fad9ad6313b1feb588fa8e605e3a9873172f2024330c35dd2b4041a4386338360405180806020018473ffffffffffffffffffffffffffffffffffffffff1673ffffffffffffffffffffffffffffffffffffffff1681526020018381526020018281038252600c8152602001807f52656d6f7665206f666665720000000000000000000000000000000000000000815250602001935050505060405180910390a15050565b6040518060400160405280600481526020017f4e4f49520000000000000000000000000000000000000000000000000000000081525081565b60008060008060008060018781548110611c2357fe5b9060005260206000209060020201905060008160010160009054906101000a900467ffffffffffffffff1667ffffffffffffffff1611611ccb576040517f08c379a00000000000000000000000000000000000000000000000000000000081526004018080602001828103825260178152602001807f74686520726f626f7420646f65736e277420657869737400000000000000000081525060200191505060405180910390fd5b8060010160009054906101000a900467ffffffffffffffff1667ffffffffffffffff1694508060010160089054906101000a900463ffffffff1663ffffffff16935080600101600c9054906101000a900463ffffffff1663ffffffff1692508060010160109054906101000a900461ffff1661ffff169150806000015495505091939590929450565b600073ffffffffffffffffffffffffffffffffffffffff168273ffffffffffffffffffffffffffffffffffffffff161415611d8e57600080fd5b611d98338261218b565b611da157600080fd5b611dac3383836124ad565b5050565b611db86126d8565b600660008381526020019081526020016000206040518060600160405290816000820160009054906101000a900473ffffffffffffffffffffffffffffffffffffffff1673ffffffffffffffffffffffffffffffffffffffff1673ffffffffffffffffffffffffffffffffffffffff16815260200160018201548152602001600282015481525050905080602001513414611ebb576040517f08c379a00000000000000000000000000000000000000000000000000000000081526004018080602001828103825260188152602001807f546865207072696365206973206e6f7420636f7272656374000000000000000081525060200191505060405180910390fd5b6005600760008481526020019081526020016000205481548110611edb57fe5b9060005260206000209060030201600080820160006101000a81549073ffffffffffffffffffffffffffffffffffffffff021916905560018201600090556002820160009055505060066000838152602001908152602001600020600080820160006101000a81549073ffffffffffffffffffffffffffffffffffffffff0219169055600182016000905560028201600090555050611f7a82336121f7565b611f8981600001513384610ef2565b806000015173ffffffffffffffffffffffffffffffffffffffff166108fc349081150290604051600060405180830381858888f19350505050158015611fd3573d6000803e3d6000fd5b507fd99e4fad9ad6313b1feb588fa8e605e3a9873172f2024330c35dd2b4041a4386338360405180806020018473ffffffffffffffffffffffffffffffffffffffff1673ffffffffffffffffffffffffffffffffffffffff168152602001838152602001828103825260038152602001807f4275790000000000000000000000000000000000000000000000000000000000815250602001935050505060405180910390a15050565b600a81565b60085481565b6000809054906101000a900473ffffffffffffffffffffffffffffffffffffffff1673ffffffffffffffffffffffffffffffffffffffff163373ffffffffffffffffffffffffffffffffffffffff16146120e057600080fd5b600073ffffffffffffffffffffffffffffffffffffffff168173ffffffffffffffffffffffffffffffffffffffff161461215557806000806101000a81548173ffffffffffffffffffffffffffffffffffffffff021916908373ffffffffffffffffffffffffffffffffffffffff1602179055505b50565b60026020528060005260406000206000915054906101000a900473ffffffffffffffffffffffffffffffffffffffff1681565b60008273ffffffffffffffffffffffffffffffffffffffff166002600084815260200190815260200160002060009054906101000a900473ffffffffffffffffffffffffffffffffffffffff1673ffffffffffffffffffffffffffffffffffffffff1614905092915050565b806004600084815260200190815260200160002060006101000a81548173ffffffffffffffffffffffffffffffffffffffff021916908373ffffffffffffffffffffffffffffffffffffffff1602179055505050565b600061225761270f565b6040518060a001604052808581526020014267ffffffffffffffff1681526020018863ffffffff1681526020018763ffffffff1681526020018661ffff168152509050600060018083908060018154018082558091505090600182039060005260206000209060020201600090919290919091506000820151816000015560208201518160010160006101000a81548167ffffffffffffffff021916908367ffffffffffffffff16021790555060408201518160010160086101000a81548163ffffffff021916908363ffffffff160217905550606082015181600101600c6101000a81548163ffffffff021916908363ffffffff16021790555060808201518160010160106101000a81548161ffff021916908361ffff16021790555050500390508063ffffffff16811461238c57600080fd5b7f1d5f31e7284cc394052e49ea7639173b45d88885a247d664e964489ee8f4ecdb8482846040015163ffffffff16856060015163ffffffff168660000151604051808673ffffffffffffffffffffffffffffffffffffffff1673ffffffffffffffffffffffffffffffffffffffff1681526020018581526020018481526020018381526020018281526020019550505050505060405180910390a1612433600085836124ad565b809250505095945050505050565b60008273ffffffffffffffffffffffffffffffffffffffff166004600084815260200190815260200160002060009054906101000a900473ffffffffffffffffffffffffffffffffffffffff1673ffffffffffffffffffffffffffffffffffffffff1614905092915050565b600360008373ffffffffffffffffffffffffffffffffffffffff1673ffffffffffffffffffffffffffffffffffffffff16815260200190815260200160002060008154809291906001019190505550816002600083815260200190815260200160002060006101000a81548173ffffffffffffffffffffffffffffffffffffffff021916908373ffffffffffffffffffffffffffffffffffffffff160217905550600073ffffffffffffffffffffffffffffffffffffffff168373ffffffffffffffffffffffffffffffffffffffff161461260957600360008473ffffffffffffffffffffffffffffffffffffffff1673ffffffffffffffffffffffffffffffffffffffff16815260200190815260200160002060008154809291906001900391905055506004600082815260200190815260200160002060006101000a81549073ffffffffffffffffffffffffffffffffffffffff02191690555b808273ffffffffffffffffffffffffffffffffffffffff168473ffffffffffffffffffffffffffffffffffffffff167fddf252ad1be2c89b69c2b068fc378daa952ba7f163c4a11628f55a4df523b3ef60405160405180910390a4505050565b612673338261218b565b61267c57600080fd5b6004600082815260200190815260200160002060006101000a81549073ffffffffffffffffffffffffffffffffffffffff021916905550565b604051806101000160405280600890602082028038833980820191505090505090565b6040518060600160405280600073ffffffffffffffffffffffffffffffffffffffff16815260200160008152602001600081525090565b6040518060a0016040528060008152602001600067ffffffffffffffff168152602001600063ffffffff168152602001600063ffffffff168152602001600061ffff168152509056fe596f752073686f756c64206f776e2074686520726f626f7420746f2062652061626c6520746f2072656d6f76652074686973206f6666657254686520726f626f742063616e2774206d6f646966792068696d73656c6620776974686f757420736368656d65206f6620616e6f7468657220726f626f747472616e7366657246726f6d28616464726573732c616464726573732c75696e7432353629526f626f742070726963652073686f756c642062652067726561746572207468616e20302e3031596f752063616e27742073656c6c207477696365207468652073616d65206f666665727320a265627a7a7231582042243aa9cf05399218235424a0e768c9e4dbf7159f74875119957032b162db0e64736f6c63430005100032",
  "source": "import \"./utils/Ownable.sol\";\nimport \"./RobotMarketPlace.sol\";\n\npragma solidity ^0.5.0;\n\ncontract RobotCore is Ownable, RobotMarketPlace {\n\n  uint256 public constant CREATION_LIMIT_GEN0 = 10;\n\n  // Counts the number of robots the contract owner has created.\n  uint256 public gen0Counter;\n\n  constructor() public {\n    // We are creating the first robot at index 0  \n    _createRobot(0, 0, 0, uint256(-1), address(0));\n  }\n\n/*\n       we get a \n\n       Basic binary operation\n\n       >>> '{0:08b}'.format(255 & 1)\n       '00000001'\n       >>> '{0:08b}'.format(255 & 2)\n       '00000010'\n       >>> '{0:08b}'.format(255 & 4)\n       '00000100'\n       >>> '{0:08b}'.format(255 & 8)\n       '00001000'\n       >>> '{0:08b}'.format(255 & 16)\n       '00010000'\n       >>> '{0:08b}'.format(255 & 32)\n       '00100000'\n       >>> '{0:08b}'.format(255 & 64)\n       '01000000'\n       >>> '{0:08b}'.format(255 & 128)\n       '10000000'\n\n       So we use a mask on our random number to check if we will use the firstRobotParentId or the secondRobotParentID\n\n       For example 205 is 11001101 in binary So\n       firstRobotParent - firstRobotParent - secondRobotParent - secondRobotParent - firstRobotParent - firstRobotParent - secondRobotParent - firstRobotParent\n\n*/\n  function Modifying(uint256 _secondRobotParentId, uint256 _firstRobotParentId) public {\n      require(_owns(msg.sender, _secondRobotParentId), \"The user doesn't own the token\");\n      require(_owns(msg.sender, _firstRobotParentId), \"The user doesn't own the token\");\n\n      require(_firstRobotParentId != _secondRobotParentId, \"The robot can't modify himself without scheme of another robot\");\n\n      ( uint256 secondRobotParentId,,,,uint256 secondRobotParentGeneration ) = getRobot(_secondRobotParentId);\n\n      ( uint256 firstRobotParentId,,,,uint256 firstRobotParentGeneration ) = getRobot(_firstRobotParentId);\n\n      uint256 newRobotId;\n      uint256 [8] memory IdArray;\n      uint256 index = 7;\n      uint8 random = uint8(now % 255);\n      uint256 i = 0;\n      \n      for(i = 1; i <= 128; i=i*2){\n\n          /* We are */\n          if(random & i != 0){\n              IdArray[index] = uint8(firstRobotParentId % 100);\n          } else {\n              IdArray[index] = uint8(secondRobotParentId % 100);\n          }\n          firstRobotParentId /= 100;\n          secondRobotParentId /= 100;\n        index -= 1;\n      }\n     \n      /* Add a random parameter in a random place */\n      uint8 newIdIndex =  random % 7;\n      IdArray[newIdIndex] = random % 99;\n\n      /* We reverse the Id in the right order */\n      for (i = 0 ; i < 8; i++ ){\n        newRobotId += IdArray[i];\n        if(i != 7){\n            newRobotId *= 100;\n        }\n      }\n\n      uint256 newRobotGeneration = 0;\n      if (secondRobotParentGeneration < firstRobotParentGeneration){\n        newRobotGeneration = firstRobotParentGeneration + 1;\n        newRobotGeneration /= 2;\n      } else if (secondRobotParentGeneration > firstRobotParentGeneration){\n        newRobotGeneration = secondRobotParentGeneration + 1;\n        newRobotGeneration /= 2;\n      } else{\n        newRobotGeneration = firstRobotParentGeneration + 1;\n      }\n\n      _createRobot(_firstRobotParentId, _secondRobotParentId, newRobotGeneration, newRobotId, msg.sender);\n  }\n\n\n  function createRobotGen0(uint256 _id) public onlyOwner {\n    require(gen0Counter < CREATION_LIMIT_GEN0);\n\n    gen0Counter++;\n\n    // Gen0 have no owners they are own by the contract\n    uint256 tokenId = _createRobot(0, 0, 0, _id, msg.sender);\n    setOffer(0.2 ether, tokenId);\n  }\n\n  function getRobot(uint256 _id)\n    public\n    view\n    returns (\n    uint256 id,\n    uint256 buildTime,\n    uint256 firstRobotParentId,\n    uint256 secondRobotParentId,\n    uint256 generation\n  ) {\n    Robot storage robot = robots[_id];\n\n    require(robot.buildTime > 0, \"the robot doesn't exist\");\n\n    buildTime = uint256(robot.buildTime);\n    firstRobotParentId = uint256(robot.firstRobotParentId);\n    secondRobotParentId = uint256(robot.secondRobotParentId);\n    generation = uint256(robot.generation);\n    id = robot.id;\n  }\n}",
  "sourcePath": "/Users/ivanlieskov/Desktop/TechnoirClub/TechnoirClub/contracts/RobotCore.sol",
  "compiler": {
    "name": "solc",
    "version": "0.5.16+commit.9c3226ce.Emscripten.clang"
  },
  "schemaVersion": "3.4.7",
  "updatedAt": "2022-04-28T17:19:00.570Z",
  "networkType": "ethereum",
  "devdoc": {
    "methods": {
      "transferOwnership(address)": {
        "details": "Allows the current owner to transfer control of the contract to a newOwner.",
        "params": {
          "newOwner": "The address to transfer ownership to."
        }
      }
    }
  },
  "userdoc": {
    "methods": {}
  }
}